{
  "contractName": "Election",
  "abi": [
    {
      "constant": true,
      "inputs": [],
      "name": "candidatesCount",
      "outputs": [
        {
          "name": "",
          "type": "uint256"
        }
      ],
      "payable": false,
      "stateMutability": "view",
      "type": "function"
    },
    {
      "constant": true,
      "inputs": [
        {
          "name": "",
          "type": "uint256"
        }
      ],
      "name": "candidates",
      "outputs": [
        {
          "name": "id",
          "type": "uint256"
        },
        {
          "name": "name",
          "type": "string"
        },
        {
          "name": "voteCount",
          "type": "uint256"
        }
      ],
      "payable": false,
      "stateMutability": "view",
      "type": "function"
    },
    {
      "constant": true,
      "inputs": [
        {
          "name": "",
          "type": "address"
        }
      ],
      "name": "voters",
      "outputs": [
        {
          "name": "",
          "type": "bool"
        }
      ],
      "payable": false,
      "stateMutability": "view",
      "type": "function"
    },
    {
      "anonymous": false,
      "inputs": [
        {
          "indexed": true,
          "name": "_candidateId",
          "type": "uint256"
        }
      ],
      "name": "votedEvent",
      "type": "event"
    },
    {
      "constant": false,
      "inputs": [],
      "name": "Elec",
      "outputs": [],
      "payable": false,
      "stateMutability": "nonpayable",
      "type": "function"
    },
    {
      "constant": false,
      "inputs": [
        {
          "name": "_candidateId",
          "type": "uint256"
        }
      ],
      "name": "vote",
      "outputs": [],
      "payable": false,
      "stateMutability": "nonpayable",
      "type": "function"
    }
  ],
  "bytecode": "0x608060405234801561001057600080fd5b5061060f806100206000396000f3fe608060405234801561001057600080fd5b50600436106100575760003560e01c80630121b93f1461005c5780632d35a8a21461008a5780633477ee2e146100a857806344abf4d61461015d578063a3ec138d14610167575b600080fd5b6100886004803603602081101561007257600080fd5b81019080803590602001909291905050506101c3565b005b6100926102e1565b6040518082815260200191505060405180910390f35b6100d4600480360360208110156100be57600080fd5b81019080803590602001909291905050506102e7565b6040518084815260200180602001838152602001828103825284818151815260200191508051906020019080838360005b83811015610120578082015181840152602081019050610105565b50505050905090810190601f16801561014d5780820380516001836020036101000a031916815260200191505b5094505050505060405180910390f35b6101656103a9565b005b6101a96004803603602081101561017d57600080fd5b81019080803573ffffffffffffffffffffffffffffffffffffffff1690602001909291905050506104a3565b604051808215151515815260200191505060405180910390f35b600160003373ffffffffffffffffffffffffffffffffffffffff1673ffffffffffffffffffffffffffffffffffffffff16815260200190815260200160002060009054906101000a900460ff161561021a57600080fd5b60008111801561022c57506002548111155b61023557600080fd5b60018060003373ffffffffffffffffffffffffffffffffffffffff1673ffffffffffffffffffffffffffffffffffffffff16815260200190815260200160002060006101000a81548160ff02191690831515021790555060008082815260200190815260200160002060020160008154809291906001019190505550807ffff3c900d938d21d0990d786e819f29b8d05c1ef587b462b939609625b684b1660405160405180910390a250565b60025481565b6000602052806000526040600020600091509050806000015490806001018054600181600116156101000203166002900480601f0160208091040260200160405190810160405280929190818152602001828054600181600116156101000203166002900480156103995780601f1061036e57610100808354040283529160200191610399565b820191906000526020600020905b81548152906001019060200180831161037c57829003601f168201915b5050505050908060020154905083565b6103e76040518060400160405280600b81526020017f43616e64696461746520310000000000000000000000000000000000000000008152506104c3565b6104256040518060400160405280600b81526020017f43616e64696461746520320000000000000000000000000000000000000000008152506104c3565b6104636040518060400160405280600b81526020017f43616e64696461746520330000000000000000000000000000000000000000008152506104c3565b6104a16040518060400160405280600b81526020017f43616e64696461746520340000000000000000000000000000000000000000008152506104c3565b565b60016020528060005260406000206000915054906101000a900460ff1681565b600260008154809291906001019190505550604051806060016040528060025481526020018281526020016000815250600080600254815260200190815260200160002060008201518160000155602082015181600101908051906020019061052d92919061053e565b506040820151816002015590505050565b828054600181600116156101000203166002900490600052602060002090601f016020900481019282601f1061057f57805160ff19168380011785556105ad565b828001600101855582156105ad579182015b828111156105ac578251825591602001919060010190610591565b5b5090506105ba91906105be565b5090565b6105e091905b808211156105dc5760008160009055506001016105c4565b5090565b9056fea165627a7a7230582049a55dc6de29495514aee31d425c0af91f2f46cd4567dae2a984f0ea00d134b40029",
  "source": "pragma solidity 0.5.8;\r\n\r\ncontract Election {\r\n    // Read/write candidate\r\n    // string public candidate;\r\n     struct Candidate {\r\n        uint id;\r\n        string name;\r\n        uint voteCount;\r\n    }\r\n    event votedEvent (\r\n        uint indexed _candidateId\r\n    );\r\n     mapping(uint => Candidate) public candidates;\r\n     mapping(address => bool) public voters;\r\n    \r\n\r\n    // Constructor\r\n    //  function elec () public {\r\n    //     candidate = \"Candidate 1\";\r\n    // }\r\n     uint public candidatesCount;\r\n    function addCandidate (string memory _name) private {\r\n        candidatesCount ++;\r\n        candidates[candidatesCount] = Candidate(candidatesCount, _name, 0);\r\n    }\r\n      function Elec () public {\r\n        addCandidate(\"Candidate 1\");\r\n        addCandidate(\"Candidate 2\");\r\n        addCandidate(\"Candidate 3\");\r\n        addCandidate(\"Candidate 4\");\r\n\r\n    }\r\n    function vote (uint _candidateId) public {\r\n    // require that they haven't voted before\r\n    require(!voters[msg.sender]);\r\n\r\n    // require a valid candidate\r\n    require(_candidateId > 0 && _candidateId <= candidatesCount);\r\n\r\n    // record that voter has voted\r\n    voters[msg.sender] = true;\r\n\r\n    // update candidate vote Count\r\n    candidates[_candidateId].voteCount ++;\r\n\r\n    // trigger voted event\r\n    emit votedEvent(_candidateId);\r\n}\r\n\r\n}\r\n\r\n",
  "sourcePath": "C:/Users/user/newApp1/contracts/election.sol",
  "compiler": {
    "name": "solc",
    "version": "0.5.8+commit.23d335f2.Emscripten.clang"
  },
  "schemaVersion": "3.0.11",
  "updatedAt": "2019-06-25T09:51:11.706Z",
  "devdoc": {
    "methods": {}
  },
  "userdoc": {
    "methods": {}
  }
}